{
  "_format": "hh-sol-artifact-1",
  "contractName": "Todo",
  "sourceName": "contracts/Todo.sol",
  "abi": [
    {
      "inputs": [],
      "stateMutability": "nonpayable",
      "type": "constructor"
    },
    {
      "inputs": [
        {
          "internalType": "string",
          "name": "_desc",
          "type": "string"
        }
      ],
      "name": "addTask",
      "outputs": [],
      "stateMutability": "nonpayable",
      "type": "function"
    },
    {
      "inputs": [
        {
          "internalType": "uint256",
          "name": "_id",
          "type": "uint256"
        }
      ],
      "name": "finished",
      "outputs": [],
      "stateMutability": "nonpayable",
      "type": "function"
    },
    {
      "inputs": [],
      "name": "getAllStask",
      "outputs": [
        {
          "components": [
            {
              "internalType": "string",
              "name": "desc",
              "type": "string"
            },
            {
              "internalType": "enum Todo.Status",
              "name": "status",
              "type": "uint8"
            }
          ],
          "internalType": "struct Todo.Stask[]",
          "name": "",
          "type": "tuple[]"
        }
      ],
      "stateMutability": "view",
      "type": "function"
    },
    {
      "inputs": [
        {
          "internalType": "uint256",
          "name": "id",
          "type": "uint256"
        }
      ],
      "name": "getStask",
      "outputs": [
        {
          "internalType": "string",
          "name": "desc",
          "type": "string"
        },
        {
          "internalType": "enum Todo.Status",
          "name": "status",
          "type": "uint8"
        }
      ],
      "stateMutability": "view",
      "type": "function"
    },
    {
      "inputs": [],
      "name": "getStaskCount",
      "outputs": [
        {
          "internalType": "uint256",
          "name": "",
          "type": "uint256"
        }
      ],
      "stateMutability": "view",
      "type": "function"
    },
    {
      "inputs": [
        {
          "internalType": "uint256",
          "name": "id",
          "type": "uint256"
        }
      ],
      "name": "removeStask",
      "outputs": [],
      "stateMutability": "nonpayable",
      "type": "function"
    },
    {
      "inputs": [
        {
          "internalType": "uint256",
          "name": "",
          "type": "uint256"
        }
      ],
      "name": "tasks",
      "outputs": [
        {
          "internalType": "string",
          "name": "desc",
          "type": "string"
        },
        {
          "internalType": "enum Todo.Status",
          "name": "status",
          "type": "uint8"
        }
      ],
      "stateMutability": "view",
      "type": "function"
    }
  ],
  "bytecode": "0x608060405234801561001057600080fd5b50336000806101000a81548173ffffffffffffffffffffffffffffffffffffffff021916908373ffffffffffffffffffffffffffffffffffffffff16021790555061140d806100606000396000f3fe608060405234801561001057600080fd5b506004361061007d5760003560e01c80638d9776721161005b5780638d977672146100eb578063c4d2266f1461011c578063d18c89171461013a578063f8e1565a146101565761007d565b8063278e52f81461008257806331dcc8201461009e57806367238562146100cf575b600080fd5b61009c60048036038101906100979190610982565b610174565b005b6100b860048036038101906100b39190610982565b61036b565b6040516100c6929190610ab6565b60405180910390f35b6100e960048036038101906100e49190610c1b565b610488565b005b61010560048036038101906101009190610982565b6105b4565b604051610113929190610ab6565b60405180910390f35b61012461067d565b6040516101319190610c73565b60405180910390f35b610154600480360381019061014f9190610982565b61068a565b005b61015e6107af565b60405161016b9190610de6565b60405180910390f35b60008054906101000a900473ffffffffffffffffffffffffffffffffffffffff1673ffffffffffffffffffffffffffffffffffffffff163373ffffffffffffffffffffffffffffffffffffffff1614610202576040517f08c379a00000000000000000000000000000000000000000000000000000000081526004016101f990610e7a565b60405180910390fd5b6001805490508110610249576040517f08c379a000000000000000000000000000000000000000000000000000000000815260040161024090610ee6565b60405180910390fd5b60008190505b600180805490506102609190610f35565b81101561031857600180826102759190610f69565b8154811061028657610285610f9d565b5b9060005260206000209060020201600182815481106102a8576102a7610f9d565b5b9060005260206000209060020201600082018160000190816102ca91906111ee565b506001820160009054906101000a900460ff168160010160006101000a81548160ff0219169083600181111561030357610302610a3f565b5b0217905550905050808060010191505061024f565b50600180548061032b5761032a6112d6565b5b60019003818190600052602060002090600202016000808201600061035091906108db565b6001820160006101000a81549060ff02191690555050905550565b6060600060018054905083106103b6576040517f08c379a00000000000000000000000000000000000000000000000000000000081526004016103ad90610ee6565b60405180910390fd5b6000600184815481106103cc576103cb610f9d565b5b90600052602060002090600202019050806000018160010160009054906101000a900460ff168180546103fe90610ffb565b80601f016020809104026020016040519081016040528092919081815260200182805461042a90610ffb565b80156104775780601f1061044c57610100808354040283529160200191610477565b820191906000526020600020905b81548152906001019060200180831161045a57829003601f168201915b505050505091509250925050915091565b60008054906101000a900473ffffffffffffffffffffffffffffffffffffffff1673ffffffffffffffffffffffffffffffffffffffff163373ffffffffffffffffffffffffffffffffffffffff1614610516576040517f08c379a000000000000000000000000000000000000000000000000000000000815260040161050d90610e7a565b60405180910390fd5b600160405180604001604052808381526020016000600181111561053d5761053c610a3f565b5b8152509080600181540180825580915050600190039060005260206000209060020201600090919091909150600082015181600001908161057e9190611305565b5060208201518160010160006101000a81548160ff021916908360018111156105aa576105a9610a3f565b5b0217905550505050565b600181815481106105c457600080fd5b90600052602060002090600202016000915090508060000180546105e790610ffb565b80601f016020809104026020016040519081016040528092919081815260200182805461061390610ffb565b80156106605780601f1061063557610100808354040283529160200191610660565b820191906000526020600020905b81548152906001019060200180831161064357829003601f168201915b5050505050908060010160009054906101000a900460ff16905082565b6000600180549050905090565b60008054906101000a900473ffffffffffffffffffffffffffffffffffffffff1673ffffffffffffffffffffffffffffffffffffffff163373ffffffffffffffffffffffffffffffffffffffff1614610718576040517f08c379a000000000000000000000000000000000000000000000000000000000815260040161070f90610e7a565b60405180910390fd5b600180549050811061075f576040517f08c379a000000000000000000000000000000000000000000000000000000000815260040161075690610ee6565b60405180910390fd5b600180828154811061077457610773610f9d565b5b906000526020600020906002020160010160006101000a81548160ff021916908360018111156107a7576107a6610a3f565b5b021790555050565b60606001805480602002602001604051908101604052809291908181526020016000905b828210156108d2578382906000526020600020906002020160405180604001604052908160008201805461080690610ffb565b80601f016020809104026020016040519081016040528092919081815260200182805461083290610ffb565b801561087f5780601f106108545761010080835404028352916020019161087f565b820191906000526020600020905b81548152906001019060200180831161086257829003601f168201915b505050505081526020016001820160009054906101000a900460ff1660018111156108ad576108ac610a3f565b5b60018111156108bf576108be610a3f565b5b81525050815260200190600101906107d3565b50505050905090565b5080546108e790610ffb565b6000825580601f106108f95750610918565b601f016020900490600052602060002090810190610917919061091b565b5b50565b5b8082111561093457600081600090555060010161091c565b5090565b6000604051905090565b600080fd5b600080fd5b6000819050919050565b61095f8161094c565b811461096a57600080fd5b50565b60008135905061097c81610956565b92915050565b60006020828403121561099857610997610942565b5b60006109a68482850161096d565b91505092915050565b600081519050919050565b600082825260208201905092915050565b60005b838110156109e95780820151818401526020810190506109ce565b60008484015250505050565b6000601f19601f8301169050919050565b6000610a11826109af565b610a1b81856109ba565b9350610a2b8185602086016109cb565b610a34816109f5565b840191505092915050565b7f4e487b7100000000000000000000000000000000000000000000000000000000600052602160045260246000fd5b60028110610a7f57610a7e610a3f565b5b50565b6000819050610a9082610a6e565b919050565b6000610aa082610a82565b9050919050565b610ab081610a95565b82525050565b60006040820190508181036000830152610ad08185610a06565b9050610adf6020830184610aa7565b9392505050565b600080fd5b600080fd5b7f4e487b7100000000000000000000000000000000000000000000000000000000600052604160045260246000fd5b610b28826109f5565b810181811067ffffffffffffffff82111715610b4757610b46610af0565b5b80604052505050565b6000610b5a610938565b9050610b668282610b1f565b919050565b600067ffffffffffffffff821115610b8657610b85610af0565b5b610b8f826109f5565b9050602081019050919050565b82818337600083830152505050565b6000610bbe610bb984610b6b565b610b50565b905082815260208101848484011115610bda57610bd9610aeb565b5b610be5848285610b9c565b509392505050565b600082601f830112610c0257610c01610ae6565b5b8135610c12848260208601610bab565b91505092915050565b600060208284031215610c3157610c30610942565b5b600082013567ffffffffffffffff811115610c4f57610c4e610947565b5b610c5b84828501610bed565b91505092915050565b610c6d8161094c565b82525050565b6000602082019050610c886000830184610c64565b92915050565b600081519050919050565b600082825260208201905092915050565b6000819050602082019050919050565b600082825260208201905092915050565b6000610cd6826109af565b610ce08185610cba565b9350610cf08185602086016109cb565b610cf9816109f5565b840191505092915050565b610d0d81610a95565b82525050565b60006040830160008301518482036000860152610d308282610ccb565b9150506020830151610d456020860182610d04565b508091505092915050565b6000610d5c8383610d13565b905092915050565b6000602082019050919050565b6000610d7c82610c8e565b610d868185610c99565b935083602082028501610d9885610caa565b8060005b85811015610dd45784840389528151610db58582610d50565b9450610dc083610d64565b925060208a01995050600181019050610d9c565b50829750879550505050505092915050565b60006020820190508181036000830152610e008184610d71565b905092915050565b7f4f6e6c7920746865206f776e65722063616e2075736520746869732066756e6360008201527f74696f6e00000000000000000000000000000000000000000000000000000000602082015250565b6000610e646024836109ba565b9150610e6f82610e08565b604082019050919050565b60006020820190508181036000830152610e9381610e57565b9050919050565b7f5461736b204944206f7574206f6620626f756e64730000000000000000000000600082015250565b6000610ed06015836109ba565b9150610edb82610e9a565b602082019050919050565b60006020820190508181036000830152610eff81610ec3565b9050919050565b7f4e487b7100000000000000000000000000000000000000000000000000000000600052601160045260246000fd5b6000610f408261094c565b9150610f4b8361094c565b9250828203905081811115610f6357610f62610f06565b5b92915050565b6000610f748261094c565b9150610f7f8361094c565b9250828201905080821115610f9757610f96610f06565b5b92915050565b7f4e487b7100000000000000000000000000000000000000000000000000000000600052603260045260246000fd5b7f4e487b7100000000000000000000000000000000000000000000000000000000600052602260045260246000fd5b6000600282049050600182168061101357607f821691505b60208210810361102657611025610fcc565b5b50919050565b60008154905061103b81610ffb565b9050919050565b60008190508160005260206000209050919050565b60006020601f8301049050919050565b600082821b905092915050565b6000600883026110a47fffffffffffffffffffffffffffffffffffffffffffffffffffffffffffffffff82611067565b6110ae8683611067565b95508019841693508086168417925050509392505050565b6000819050919050565b60006110eb6110e66110e18461094c565b6110c6565b61094c565b9050919050565b6000819050919050565b611105836110d0565b611119611111826110f2565b848454611074565b825550505050565b600090565b61112e611121565b6111398184846110fc565b505050565b5b8181101561115d57611152600082611126565b60018101905061113f565b5050565b601f8211156111a25761117381611042565b61117c84611057565b8101602085101561118b578190505b61119f61119785611057565b83018261113e565b50505b505050565b600082821c905092915050565b60006111c5600019846008026111a7565b1980831691505092915050565b60006111de83836111b4565b9150826002028217905092915050565b8181036111fc5750506112d4565b6112058261102c565b67ffffffffffffffff81111561121e5761121d610af0565b5b6112288254610ffb565b611233828285611161565b6000601f8311600181146112625760008415611250578287015490505b61125a85826111d2565b8655506112cd565b601f19841661127087611042565b965061127b86611042565b60005b828110156112a35784890154825560018201915060018501945060208101905061127e565b868310156112c057848901546112bc601f8916826111b4565b8355505b6001600288020188555050505b5050505050505b565b7f4e487b7100000000000000000000000000000000000000000000000000000000600052603160045260246000fd5b61130e826109af565b67ffffffffffffffff81111561132757611326610af0565b5b6113318254610ffb565b61133c828285611161565b600060209050601f83116001811461136f576000841561135d578287015190505b61136785826111d2565b8655506113cf565b601f19841661137d86611042565b60005b828110156113a557848901518255600182019150602085019450602081019050611380565b868310156113c257848901516113be601f8916826111b4565b8355505b6001600288020188555050505b50505050505056fea26469706673582212201c8c835594993cba7d7c49fc57081e695734cacca90c1433a53f498b344f9f3464736f6c63430008180033",
  "linkReferences": {},
  "deployedLinkReferences": {}
}